:100000000C94F7020C943E030C943E030C943E03B4
:100010000C943E030C943E030C943E030C943E035C
:100020000C943E030C943E030C941F2C0C94F12C66
:100030000C9423260C943E030C943E030C943E0334
:100040000C943E030C943E030C943E030C943E032C
:100050000C943E030C948B260C943E030C943E03AC
:100060000C943E030C943E030C943E030C943E030C
:100070000C943E030C943E030C943E030C943E03FC
:100080000C94060D0C943E030C943E030C943E031A
:100090000C943E030C943E030C943E030C943E03DC
:1000A0000C943E030C943E030C943E033504F80379
:1000B000FA03FD030004030409040F0413040313EB
:1000C0001A1335132D1442157914B214F814841B25
:1000D000841BB61BB61B031C371D371D371D211C87
:1000E000B61CC71CC71C271D371D371D301DB91D69
:1000F000B91DCB1DCB1DC21DCB1DCB1DCB1DB91DED
:10010000B91DC71DCB1DCB1DC71D5E2D852D7D2E99
:10011000852D7D2ED12DF42D7D2E4B2E5A2E07634D
:100120004236B79BD8A71A39685618AEBAAB558C69
:100130001D3CB7CC5763BD6DEDFD753EF6177231B2
:10014000BF000000803F08000000BE922449123E1C
:10015000ABAAAA2ABECDCCCC4C3E00000080BEABE0
:10016000AAAAAA3E00000000BF000000803F0000D5
:10017000000000084178D3BB4387D1133D190E3CE2
:10018000C3BD4282AD2B3E68EC8276BED98FE1A919
:100190003E4C80EFFFBE01C4FF7F3F000000000027
:1001A0006D6F6465206A7573742073776974636812
:1001B000656420746F2071776572747920616E6454
:1001C00020746869732069732061206875676520F1
:1001D000737472696E670A00290014001A0008001F
:1001E000150017001C0018000C00120013002A0054
:1001F0002B0004001600070009000A000B000D0088
:100200000E000F0037003600E1001D001B00060045
:1002100019000500110010002D02330033022800E0
:10022000035DE000E200E30001512C002C000251CC
:100230005000510052004F0035021E021F022002E2
:1002400021022202230224022502260227022A007A
:100250001D5C3802010001000100010001000100E5
:100260002E022F02300234001E5C31020100010018
:1002700001000100010001002D003100380049009B
:100280000100010001000100010001000100010066
:100290004A00AA00A9004D0035001E001F002000E2
:1002A00021002200230024002500260027004C0006
:1002B00001003A003B003C003D003E003F000100D1
:1002C00001002F00300034020100400041004200D4
:1002D00043004400450001002E00360237020100B1
:1002E0000100010001000100010001000100010006
:1002F0004B00AA00A9004E000100005C015CC25C3A
:10030000C35CC55CC65CC75CC85CC95CCA5C4C00AD
:1003100001000100295C1D5C1E5C135C0A5C01008D
:10032000010001000100010001002B5C2A5C265C39
:10033000275C2C5C2D5C0000000001000100010026
:1003400001000100010001000100010001000100A5
:10035000010001000100010044454255473A206474
:10036000697361626C65642E0A0044454255473AE0
:1003700020656E61626C65642E0A000A00253031CA
:100380003662003A200025303258000A722F63206E
:1003900030313233343536373839414243444546BB
:1003A0000A00617564696F20706C6179206E6F74EA
:1003B0006520667265713D256420766F6C3D25640D
:1003C00000617564696F2073746F70206E6F74655F
:1003D00020667265713D256400617564696F2073E4
:1003E000746F7020616C6C206E6F746573000A000E
:1003F0002530325820006B6579626F6172645F72DC
:1004000065706F72743A20000A0025303258006B14
:100410006579626F6172645F7365745F6C65643A7D
:10042000200064656C5F6B65795F6269743A206374
:10043000616E27742064656C3A20253032580A00BA
:100440006164645F6B65795F6269743A2063616EB1
:100450002774206164643A20253032580A005B73A7
:100460005D004B6579626F617264207374617274B0
:100470002E0A005B575D005B535D005B525D005BC5
:10048000445D005B435D000403300000000E035038
:10049000006C0061006E0063006B0000000A034FF7
:1004A000004C004B00420000000403090409025BF9
:1004B00000030100A0FA0904000001030101000982
:1004C00021110100012240000705810308000A09EB
:1004D0000401000103000000092111010001227143
:1004E000000705820320000A09040200020300003D
:1004F00000092111010001222200070583032000C9
:10050000010705030320000112011001000000088B
:10051000EDFE60600500010203010631FF0974A1D0
:10052000010975150026FF009520750881020976DE
:10053000150026FF00952075089102C0050109806D
:10054000A10185031A81002A8300160100260300F9
:10055000950175108100C0050C0901A10185041ADF
:1005600001002A9C02160100269C0295017510814B
:1005700000C005010906A1018505050719E029E765
:10058000150025019508750181020507190029EF5D
:100590001500250195F0750181020508190129054D
:1005A000950575019102950175039101C005010939
:1005B00006A101050719E029E71500250195087531
:1005C0000181029501750881010507190029FF15B0
:1005D0000026FF0095067508810005081901290508
:1005E000950575019102950175039101C0001124D3
:1005F0001FBECFEFDAE0DEBFCDBF04B603FE27C0DB
:1006000080918B0790918C07A0918D07B0918E07F8
:100610008730904BA740B04BD1F410928B071092CB
:100620008C0710928D0710928E0714BE84B7877FB7
:1006300084BF0FB6F894A89580916000886180937C
:100640006000109260000FBEE0E0F8E3099516E04C
:10065000A0E0B1E0E8E0F8E602C005900D92AE310E
:10066000B107D9F727E0AEE1B6E001C01D92AB3883
:10067000B207E1F70E9440290C9402340C94000068
:10068000FF93EF93E0911E06F0911F06309709F05B
:100690000995EF91FF910895FC018591803011F04B
:1006A000EFDFFBCF0895FF27E0E230E247FF0CC009
:1006B000419597FF09C0EDE2609570958095909502
:1006C000611D711D811D911D27FF02C0219530E321
:1006D00050E2AA27660F771F881F991FAA1FA41729
:1006E00010F0A41B63955A95A9F7AA3008F0A95FEA
:1006F000A05DAF93F395611571058105910541F7F3
:10070000ED3211F4EF93F395F21718F43F93F3954C
:10071000FBCF8F91B5DFFA95E1F70895E991F99153
:100720008591803021F0853219F0AADFF9CF089544
:1007300020E0E89455915532C1F3503311F4689498
:1007400055915A3348F4505390F3220F022E220F42
:10075000220F200D250FF4CF0EF421958991999148
:10076000533619F3533729F1533559F1BC01882712
:100770009927E8945C3621F4899199916894559170
:10078000543639F446EF7EF077FF0DC08FEF9FEFC0
:100790000AC055374AE039F0583540E121F0523669
:1007A00042E009F00895FF93EF937DDFEF91FF9111
:1007B000B7CFFF93EF93FC0181918030B9F360DFF5
:1007C000FBCFFF93EF9368DFF1CFDF93CF93CDB7EC
:1007D000DEB72596A3DFCF91DF910895482F50E033
:1007E0004930510528F5FA01EA5AFF4F0C94FB32C3
:1007F00081E008958091270608958091240611C014
:100800008091240612C08091240682FB882780F9FB
:1008100008958091240683FB882780F908958091AC
:100820002606817008958091260686958170089528
:10083000895041E050E060E070E004C0440F551F73
:10084000661F771F8A95D2F7809120069091210626
:10085000A0912206B0912306482359236A237B23C3
:1008600081E0452B462B472B09F480E008951F9328
:10087000CF93DF93809104010E94EE03182F8091A3
:1008800005010E94EE03C82F809106010E94EE032D
:10089000D82F809107010E94EE0340912706411155
:1008A00048C0EC2FF0E0EE0FFF1FE45FFE4FE10FBA
:1008B000F11D94E0D99FE00DF11D112498E0899F6E
:1008C000E00DF11D1124E08180912506811109C000
:1008D0002091260630E02F5F3F4F2370332720936F
:1008E000260690E0019663E070E00E94E732809374
:1008F00025068091240690E001968F7099278093B9
:1009000024068091200690912106A0912206B091A4
:100910002306880F991FAA1FBB1F8E0F911DA11DB3
:10092000B11D8093200690932106A0932206B093D8
:1009300023064F5F417040932706809108010E9473
:10094000EE03D82F809109010E94EE03C82F8091F9
:100950000A010E94EE03CC0F880F880FC80FCD0F3D
:1009600080910B010E94EE0398E0899FC00D112435
:100970008C2FDF91CF911F9108956E9A769A0C94E7
:100980000A0B0F9303E022E041E00E94BF050F91A4
:100990000895CF93FB0183302DE5920791F08430C9
:1009A0002DE59207D1F081309D4519F5C281CC2308
:1009B00009F180EA91E00E944C0380E00E949F05CB
:1009C00016C0C28185EECC2321F00E94BB19769817
:1009D0000EC00E94D21A769A0DC0C281CC2351F06B
:1009E00040E066E070E08FE191E00E945710C0E0C7
:1009F00001C0C1E08C2FCF9108951F93CF93DF9357
:100A0000CDB7DEB7A3970FB6F894DEBF0FBECDBF4C
:100A100020912B0680912806909129062223C1F16E
:100A2000892B31F583E2E8E6F5E0DE0111960190CD
:100A30000D928A95E1F70E943704E1E0F0E0EC0FB7
:100A4000FD1FE80FF11D108180911E01180F80918C
:100A50002A06181769F00E949C0C0E945F11812FD2
:100A60000E949C0C4FE050E00E94151210932A0641
:100A70008091280690912906019660911C01709141
:100A80001D010E94D332909329068093280608C046
:100A9000892B31F00E941811109229061092280615
:100AA000A3960FB6F894DEBF0FBECDBFDF91CF91F6
:100AB0001F91089581509145029710F081E00895AB
:100AC00080E0089581E008950C94C9041F93CF93AA
:100AD000DF9300D000D01F92CDB7DEB749835A8391
:100AE0006B832091C40689819A81211112C06623EB
:100AF00049F00E940923182F682F89819A810E944A
:100B0000B22203C00E94DD22182F69817A81812FD1
:100B100004C00E94092369817A810F900F900F9081
:100B20000F900F90DF91CF911F910C945D08FC0105
:100B3000408151816281738184810C946605CF93D9
:100B4000DF93C82F20E8829FC001112440E060E1BC
:100B500070E0815B9E4F0E94571061E070E0CB0116
:100B600002C0880F991FCA95E2F7EC010E947E240B
:100B7000BE0180E090E0DF91CF910C94B4218F9280
:100B80009F92AF92BF92CF92DF92EF92FF920F931C
:100B90001F936B017C0181E090E0A0E0B0E04C018C
:100BA0005D0104C0880C991CAA1CBB1C4A95D2F795
:100BB000AC01BD0104C0440F551F661F771F2A9565
:100BC000D2F7482959296A297B2904C0880F991F1F
:100BD000AA1FBB1F0A95D2F78A019B010C211D2178
:100BE0002E213F21401751076207730739F4BC01DA
:100BF000CD016C297D298E299F290AC08095909569
:100C0000A095B095BC01CD016C217D218E219F2145
:100C10001F910F91FF90EF90DF90CF90BF90AF901A
:100C20009F908F9008950E94C20B8FE39CE90197DB
:100C3000F1F700C000000E94C20B80E00E940E0B82
:100C400080FF04C00E9465240C94B12608950E9480
:100C500013060E946B24811102C00E9419250E9474
:100C6000D5100C94BD040E9483150C940C0B0895B0
:100C70000C9437060C9438060895CF93DF930E94A6
:100C8000A71D0E944F150E945526EC0140E063E02D
:100C900070E08FE293E00E9457100E943C06CE0164
:100CA0000E9461268A3F910538F48FE99FE0019701
:100CB000F1F700C00000F3CF0E941811DF91CF912F
:100CC0000C94B1260F931F93CF93DF938C010E9456
:100CD0009705EC01B8010E946405882309F4E2C17C
:100CE000B801CE010E94BB0C882309F4DBC1B80116
:100CF000CE010E94E715882309F4D4C1B801CE01C2
:100D00000E94B117882309F4CDC1C631FCE5DF0785
:100D100039F50E948A23982FF801828120915B0582
:100D200030915C05882379F09A7A81E009F480E0BB
:100D300080932C06911102C069E201C065E3C901EC
:100D40000E94A3250AC080912C06811102C069E28D
:100D500001C065E3C9010E94AE250E94D823A2C14B
:100D6000C7318CE5D80708F072C1C130ECE5DE0769
:100D7000D1F4F8018281882309F494C18091480755
:100D8000C82FC095C170C0FB80F980934807CC2361
:100D900029F08AE693E00E944C0384C188E593E041
:100DA0000E944C0380C1C230FCE5DF0708F43EC15D
:100DB000F8018281882309F43CC10E946B248111CF
:100DC00002C00E9419250E94832490937D0780937E
:100DD0007C07CF30FCE5DF0709F4C4C008F046C04B
:100DE000C830ECE5DE0709F49DC0F0F4C4308CE5B2
:100DF000D80709F481C068F4C230FCE5DF0709F4C4
:100E000077C0C330DC4509F008C180917C0782605F
:100E100002C1C630ECE5DE0709F47CC008F07EC0F4
:100E200080917C078860F7C0CB308CE5D80709F447
:100E300089C088F4C930FCE5DF0709F477C0CA30FF
:100E4000DC4509F0EAC080917C078860846080936B
:100E50007C0740E0B3C0CD30ECE5DE0709F476C096
:100E600008F078C080917C078D7FD5C0CA3F8CE5A3
:100E7000D80709F445C0F8F4C231FCE5DF0709F4EE
:100E800079C068F4C031ECE5DE0709F46FC0C13108
:100E9000DC4509F0C2C080917C078F7BBCC0C431A7
:100EA0008CE5D80709F4AEC008F468C0C531DC454C
:100EB00009F474C0B2C0CD3F8CE5D80709F44EC028
:100EC00060F4CB3FFCE5DF07F9F0CC3FDC4509F0EF
:100ED000A4C080917D078E7F1AC0CF3FECE5DE076E
:100EE00009F454C038F1C115DD4509F471C095C04D
:100EF00080917C0781608FC080917C0784608BC06B
:100F000080917D07816003C080917D07826080931E
:100F10007D0783C080917C0780617DC080917C07C4
:100F2000806279C080917C07806475C080917C0765
:100F3000806871C080917D078260816080937D07A9
:100F400040E054C080917C078E7F65C080917C0713
:100F50008B7F61C080917C07877F5DC080917D071A
:100F60008D7FD5CF80917C078F7E55C080917C0787
:100F70008F7D51C080917C078F774DC080917C0719
:100F8000877F8B7F80937C0740E01DC080917D0729
:100F90008D7F8E7F80937D0740E02DC080917C0700
:100FA00082FB222720F991E040E0922790FB82F912
:100FB00090FB83F980937C07992329F064E070E02B
:100FC0008FEF92E01CC062E070E08FE193E017C009
:100FD00080917D07982F909591708E7F892B90FB43
:100FE00081F980937D0740E0992329F064E070E067
:100FF0008FEC92E004C062E070E08FEE92E00E941D
:1010000057100BC080917C0787FB222720F991E0C5
:10101000922790FB87F980937C0780917C079091C1
:101020007D070E9494240E94A71D3CC0C115DC4589
:1010300039F0C801DF91CF911F910F910C94620597
:10104000F8018281882371F10E943D062BC0CE3DBC
:10105000ECE5DE0739F4F8018281882319F10E945A
:10106000192520C0CF3DFCE5DF07A8F4CC3D8CE579
:10107000D80731F4F80182818823A1F080E008C00C
:10108000CD3DDC45B1F6F8018281882359F082E03C
:101090000E94E62907C0CE018A5F9C45079708F4A5
:1010A00087CEC7CFC0E08C2FDF91CF911F910F91DA
:1010B000089580E090E00895089520E3829FC001A4
:1010C0001124FC012CE0729FE00DF11D1124E60FAC
:1010D000F11DEE0FFF1FE852FE4F85919491089588
:1010E000880F991FFC01E558FC4F85919491089554
:1010F000CF93DF930E945D080E94320AEC018115B4
:10110000904508F041C0C11580E4D80708F028C117
:10111000C83ED10510F5C03ED10508F09FC1C83AC0
:10112000D10578F4C53AD10508F0A2C0C130D10587
:1011300009F494C108F445C1C430D10508F08EC14A
:1011400040C1CF3BD10508F49EC0C03CD10508F496
:1011500038C1CE01805C9109F5C0C11590E2D90774
:1011600058F4C11521E0D20708F078C1C03FD1057D
:1011700008F427C1D06572C1C11580E3D80708F013
:10118000E5C0CE019F70DEC0C11595E5D90708F016
:1011900043C0C11524E5D20708F0F9C0C11582E5A6
:1011A000D80708F5C11591E5D90708F0DCC0CE01D4
:1011B00074E0969587957A95E1F783709C2F9370EC
:1011C00021E030E002C0220F331F9A95E2F73C681D
:1011D000382BCF70C695C69580E2C89FE0011124D8
:1011E000C22BD32B3BC19E01237033278C2F8695B6
:1011F0008695C115D34508F0BBC0C1E0D0E002C060
:10120000CC0FDD1F2A95E2F720E2829FC001112456
:10121000C82BD92BDC6822C1C11529E5D207A0F45F
:10122000C11588E5D80708F0B7C0C11596E5D907FC
:1012300008F0C7C08C2F0E94C60A8F71C82FD0E05B
:10124000DC2FCC27D0620AC1C1152AE5D20708F4E9
:10125000A8C0CE0190568115904208F0B2C08D2FE3
:101260008F710E94C60ADD27D0628F71D82BF6C01D
:10127000C53AD10509F4A8C0C63AD10509F0A7C0FE
:10128000C2E8D0E4EBC0C83AD10509F4A3C0C93A1A
:10129000D10509F4A2C0CA3AD10509F4A1C0CB3ADC
:1012A000D10509F4A0C0CC3AD10509F49FC0CB3BCD
:1012B000D10509F49EC0CC3BD10509F49DC0CD3ABF
:1012C000D10509F49CC0C03BD10509F49BC0CE3ABE
:1012D000D10509F49AC0CF3AD10509F499C0C13BB0
:1012E000D10509F498C0C23BD10509F497C0C33BAE
:1012F000D10509F496C0C43BD10509F495C0C53B9E
:10130000D10509F494C0C63BD10509F493C0C73B8D
:10131000D10509F492C0C83BD10509F491C0C93B7D
:10132000D10509F490C0CD3BD10509F48FC0CE3B67
:10133000D10509F48EC0CA3BD10509F48DC0C0E0C7
:10134000D4E48CC00E947008EC0188C0CE019927BB
:10135000D3FF03C0EC01D86C81C0EC01D06C7EC01F
:10136000DF70D06A7BC0DC2FCC27C16FD06A76C01B
:10137000C1E0D0E002C0CC0FDD1F2A95E2F720E2E9
:10138000829FC0011124C82BD92BDA6867C0DC2FDB
:10139000CC27C46FD06A62C0DC2FCC27C06FD06A64
:1013A0005DC08C2F8F700E94C60A94E0D695C795B9
:1013B0009A95E1F7CF70D0E0DC2FCC27D069C82B0D
:1013C0004DC0C0E0D0E04AC0C1E8D0E447C0C3E8A7
:1013D000D0E444C0C2EED4E441C0C9EED4E43EC07F
:1013E000CAEED4E43BC0C5EBD4E438C0C6EBD4E4C9
:1013F00035C0C3EBD4E432C0C4EBD4E42FC0C7EB98
:10140000D4E42CC0CCECD4E429C0CDECD4E426C088
:10141000C3E8D5E423C0CAE8D5E420C0C2E9D5E4D6
:101420001DC0C4E9D5E41AC0C1E2D6E417C0C3E2C6
:10143000D6E414C0C4E2D6E411C0C5E2D6E40EC0BE
:10144000C6E2D6E40BC0C7E2D6E408C0CFE6D4E4D7
:1014500005C0C0E7D4E402C0CAE2D6E4CE01DF9101
:10146000CF9108958238910569F1B0F481339105E7
:1014700009F46DC048F48932910509F463C08A32D9
:10148000910509F469C008958533910509F455C0A3
:1014900089339105B9F00895833E910569F138F4D7
:1014A000803E9105B1F0823E910509F10895863E96
:1014B0009105A9F1873E9105B9F1843E910509F0A6
:1014C00064C023C020917C0720FD4FC021FD4DC08A
:1014D000089580917C0780FD44C080917D0780FF46
:1014E00044C080917C0784FD42C083EE4DC0809152
:1014F0007C0782FF38C0F5CF80917C0782FD33C026
:1015000080917D0780FD31C0ECCF80917D0781FF08
:1015100032C080917C0784FD2AC087EE35C080915F
:101520007C0783FF26C0F5CF80917C0783FD21C017
:1015300080917D0781FD1FC0ECCF80917C0785FDE8
:101540001CC01DC080917C0785FD19C016C080910C
:101550007C0786FD16C017C080917C0786FD13C0EE
:1015600010C089E311C082EE0FC080EE0DC080E094
:101570000BC086EE09C084EE07C089E205C085E392
:1015800003C08AE201C081E390E0089590917C0756
:1015900092FF0DC0282F2871283019F4877F8460AE
:1015A00006C0282F2471243011F48B7F886093FFAC
:1015B0000DC0282F2871283119F4877E846106C058
:1015C000282F2471243111F48B7E886120917D07AE
:1015D00020FF0DC0382F3871383019F4877F8160B3
:1015E00006C0382F3171313011F48E7F886021FFB1
:1015F0000DC0282F2871283119F4877E816106C01B
:10160000282F2171213111F48E7E886194FD877E0F
:10161000089508950C94090B0C94FD04E82FF0E054
:10162000EE0FFF1FE35DF94F808191810895CF9206
:10163000DF92EF92FF920F931F93CF93DF938BE88C
:1016400093E00E944C038DE2E82E86E0F82EC0E085
:10165000D0E096E8C92E93E0D92E0DE713E0DF9392
:10166000CF93DF92CF920E94E50383E893E00E943C
:101670004C03F701819191917F010E9452249F9325
:101680008F931F930F930E94E5038BE793E00E94D3
:101690004C0321968DB79EB708960FB6F8949EBF5F
:1016A0000FBE8DBFC430D105D1F6DF91CF911F9110
:1016B0000F91FF90EF90DF90CF900895CF93DF933D
:1016C000AAEBB5E04EEB55E061E070E08D91E82FBC
:1016D000E295EF70F0E021A18F70EB0102C0CC0F1A
:1016E000DD1F8A95E2F7CE019C2F9095922391A35E
:1016F00092A1892B82A34A175B0741F7AEEAB5E0B6
:1017000041E050E08D91E82FE295EF70F0E021A1EB
:101710008F70BA0102C0660F771F8A95E2F7CB017E
:10172000962F9095922391A392A1892B82A375E085
:10173000AA3BB70739F71092360610923506109279
:101740002E0610922D06109238061092370610922F
:10175000300610922F0610923A0610923906109217
:1017600032061092310610923C0610923B061092FF
:1017700034061092330684E00E94610CDF91CF9111
:101780000C9427063F924F925F926F927F928F92B6
:101790009F92AF92BF92CF92DF92EF92FF920F9300
:1017A0001F93CF93DF936AEB75E0A5E3B6E02DE3DB
:1017B000622E26E0722E412C01E010E05D018D903A
:1017C0009C90119711961C921E92EB018991BE017B
:1017D000E82FE295EF70F0E021A18F70A80102C020
:1017E000440F551F8A95E2F7CA01242B21A322A199
:1017F000342E3094232122A350EA5A95F1F79EEA21
:10180000E92E95E0F92E40E050E0E70159907E0185
:10181000252D22952F7030E0E90128A1CD90DC9094
:10182000119730E0D52DDF7002C035952795DA95F8
:10183000E2F720FD08C09801042E02C0220F331FDA
:101840000A94E2F702C020E030E0C22AD32A1196BF
:10185000DC92CE924F5F5F4F4C305105B1F691A1B3
:10186000D32DD923D1A392A1892B82A3129681E0F3
:10187000F501208131812815390509F480E0482AD5
:101880006A167B0609F09ACF242D44E06DE276E0DB
:1018900085E396E00E94620C0E943306842DDF915E
:1018A000CF911F910F91FF90EF90DF90CF90BF905D
:1018B000AF909F908F907F906F905F904F903F90F0
:1018C00008950895FF920F931F93CF93DF93F82EFF
:1018D000092F162FD72FC42F222349F081E08093A0
:1018E0003F060E94552690933E0680933D068091C8
:1018F0003F068823D9F080913D0690913E060E94D4
:101900006126069798F0EF2DF02FA12FBD2F80E0D4
:1019100090E04C2F50E08417950734F421913191D9
:101920002D933D930196F7CF10923F06DF91CF9113
:101930001F910F91FF900895682F70E06554710911
:10194000072E000C880B990B0E94CC2F20E030E072
:1019500040E451E40E94222F9B01AC0160E070E062
:1019600080E090E40E94503120E030E04CED53E400
:101970000E94E3300895FB018D312CE5920731F48C
:1019800082818823A1F10E9492122FC08E312CE512
:10199000920731F48281882351F10E94A21225C05E
:1019A0008F312CE5920741F48281882301F10E9456
:1019B0008E128111F2CFE7CF8A322CE5920731F4F3
:1019C00082818823A1F00E94BB1208C08B329C4503
:1019D00071F48281882359F00E94C41240E064E0CF
:1019E00070E087E493E00E94571080E0089581E062
:1019F00008950E949C0C4FE050E00C9415120E9438
:101A00009C0C0C945F110C94181108951F920F9266
:101A10000FB60F9211244F925F926F927F928F9226
:101A20009F92AF92BF92CF92DF92EF92FF922F934D
:101A30003F934F935F936F937F938F939F93AF9356
:101A4000BF93CF93DF93EF93FF9380915406882346
:101A500009F4ABC1C0919606D09197061C161D06DD
:101A60000CF0A3C140904306509044066090450698
:101A70007090460620E030E0A901C301B2010E9447
:101A8000DE3018160CF065C0C130D10509F452C023
:101A90008091940690919506BE010E94E7327C01E8
:101AA00090939506809394068090560690905706E2
:101AB000A0905806B090590620E030E040E85FE37F
:101AC000C501B4010E94B12E60935606709357066B
:101AD0008093580690935906F701EE0FFF1FEE0F03
:101AE000FF1FE659F94FA301920160817181828144
:101AF00093810E94222F20E030E040E05EE30E94CC
:101B0000E3309B01AC01C501B4010E94DE30181620
:101B10008CF4C7010196BE010E94E73290939506AE
:101B2000809394061092560610925706109258060B
:101B300010925906E0919406F0919506EE0FFF1F62
:101B4000EE0FFF1FE659F94F608171818281938109
:101B5000E0C08091AF032197882309F4BFC0C090F3
:101B60009006D0909106E0909206F090930620E0C7
:101B700030E0A901C701B6010E941D2F882309F496
:101B8000A2C0FE01EE0FFF1FEE0FFF1FE659F94F37
:101B900080809180A280B380A5019401C701B60125
:101BA0000E941D2F87FF31C0A501940160E070E005
:101BB0008CED93EC0E94222F20E030E040E451E4D1
:101BC0000E94222F20E030E040E05FE30E94E330FB
:101BD0009B01AC0160E070E080E090E40E94503135
:101BE0009B01AC01C501B4010E94E3309B01AC0133
:101BF000C701B6010E941D2F87FF07C0A7019601EC
:101C000060E070E08CED93E439C0A5019401C70158
:101C1000B6010E94DE3018160CF055C0A5019401E3
:101C200060E070E08CED93E40E94222F20E030E031
:101C300040E451E40E94222F20E030E040E05FE3E6
:101C40000E94E3309B01AC0160E070E080E090E432
:101C50000E9450319B01AC01C501B4010E94E330E8
:101C60009B01AC01C701B6010E94DE3018165CF57D
:101C7000A701960160E070E08CED93EC0E94222FAA
:101C800020E030E040E451E40E94222F20E030E0E8
:101C900040E05FE30E94E3309B01AC0160E070E054
:101CA00080E090E40E9450319B01AC01C701B60175
:101CB0000E94E330609390067093910680939206A1
:101CC000909393061EC0CC0FDD1FCC0FDD1FC659AD
:101CD000D94F88819981AA81BB810BC0FE01EE0F8B
:101CE000FF1FEE0FFF1FE659F94F80819181A281FE
:101CF000B3818093900690939106A0939206B0933F
:101D00009306609190067091910680919206909151
:101D1000930620914006309141062F3F4FEF340744
:101D200031F02F5F3F4F30934106209340060E94D1
:101D3000CD126B017C0120E034E244EF51E40E94BB
:101D40001D2F87FF08C046EFC42E48E2D42E44EF73
:101D5000E42E41E4F42E20E030E040E051E4C701FD
:101D6000B6010E94E3309B01AC0160E074E284E7BD
:101D70009BE40E94222F6B017C010E949B2F709399
:101D80009700609396002091B0033091B103409189
:101D9000B2035091B303C701B6010E94E3300E9421
:101DA0009B2F70939900609398008091550688232B
:101DB00009F456C1C0905006D0905106E0905206EA
:101DC000F090530620E030E0A901C701B6010E945F
:101DD000DE301816D4F580914006909141068F3F71
:101DE0002FEF920729F001969093410680934006C9
:101DF000C701B6010E94CD1220E030E040E051E47E
:101E00000E94E3309B01AC0160E074E284E79BE454
:101E10000E94222F6B017C010E949B2F70939700E0
:101E2000609396002091B0033091B1034091B203CA
:101E30005091B303C701B6010E94E3300E949B2F6B
:101E4000709399006093980008C0109297001092C8
:101E50009600109299001092980060914A06709135
:101E60004B066F5F7F4F70934B0660934A0620913D
:101E700096003091970080E090E0232B71F1209143
:101E8000490621112AC0C0919600D09197000E9466
:101E9000CA2F6B017C01BE0180E090E00E94CA2F36
:101EA0009B01AC0160914C0670914D0680914E06ED
:101EB00090914F060E94222F20E03FEF4FE757E41A
:101EC0000E94E33020E030E040E85FE30E94B02E63
:101ED0009B01AC01C701B6010AC00E94CA2F209124
:101EE0004C0630914D0640914E0650914F060E948F
:101EF000DE3087FDB5C08091470690914806019677
:101F0000909348068093470620917007309171079F
:101F100082179307B0F080917707882329F01092F9
:101F20004806109247060DC0809171008D7F809306
:101F30007100809190008F738093900010925506ED
:101F400097C0209149068091470690914806E091FC
:101F50007207F091730721113FC021E020934906D9
:101F60009C0121503109309348062093470633E005
:101F7000880F991F3A95E1F7E80FF91FDF011897CD
:101F8000CD90DD90ED90FC90208131814281538194
:101F9000C701B6010E941D2F811109C01092500681
:101FA00010925106109252061092530608C0C09229
:101FB0005006D0925106E0925206F092530680E00D
:101FC00090E0A0E8BFE380934C0690934D06A09369
:101FD0004E06B0934F0640C010924906109241063B
:101FE0001092400623E0880F991F2A95E1F7E80F29
:101FF000F91F80819181A281B381809350069093D3
:102000005106A0935206B093530620E030E040E81A
:102010005EE364817581868197810E94E3306B0164
:102020007C016091B40370E080E090E00E94CA2FD0
:1020300020E030E048EC52E40E94222F9B01AC01EA
:10204000C701B6010E94E33060934C0670934D06C1
:1020500080934E0690934F0610924B0610924A06BC
:102060008091740780FD04C01092550610925406AA
:10207000FF91EF91DF91CF91BF91AF919F918F91A0
:102080007F916F915F914F913F912F91FF90EF90D2
:10209000DF90CF90BF90AF909F908F907F906F9088
:1020A0005F904F900F900FBE0F901F901895CF929A
:1020B000DF92EF92FF92CF93DF93EC016B01F42E4E
:1020C00080914206811102C00E94D5108091740750
:1020D00080FF64C0809171008D7F8093710080913A
:1020E000540681110E94181181E080935506D09307
:1020F0007307C0937207D0927107C0927007F09275
:1021000077071092560610925706109258061092B2
:102110005906109248061092470688819981AA8133
:10212000BB818093500690935106A0935206B093C2
:10213000530620E030E040E85EE36C817D818E81D3
:102140009F810E94E3306B017C016091B40370E0D9
:1021500080E090E00E94CA2F20E030E048EC52E49A
:102160000E94222F9B01AC01C701B6010E94E330FF
:1021700060934C0670934D0680934E0690934F06E5
:1021800010924B0610924A068091710082608093F3
:10219000710080919000806880939000DF91CF91D2
:1021A000FF90EF90DF90CF9008950E946B248111F3
:1021B00002C00E9419250E94A12480937407809177
:1021C0004206811129C03E9A809171008D7F8093D3
:1021D000710082E0809390008AE18093910081EC0D
:1021E00091E1909397008093960023EA3BE04EE8BC
:1021F00055E46091B0037091B1038091B203909166
:10220000B3030E94E3300E949B2F70939900609368
:10221000980081E0809342068091740780FF07C098
:1022200040E065E070E087E893E00C945710089573
:102230008091480780FF08C089ED93E09F938F93BA
:102240000E94E5030F900F9080914206811102C019
:102250000E94D510109297061092960680917100F8
:102260008D7F80937100809190008F738093900098
:1022700010925506109254061092900610929106F4
:10228000109292061092930610928C0610928D0670
:1022900010928E0610928F0610928B0610928A066C
:1022A000EAE6F6E0AAE5B6E01192119211921192D7
:1022B0001D921D9286E0EA38F807B1F70895CF9293
:1022C000DF92EF92FF920F931F93CF93DF936B01F7
:1022D0007C018091480780FF10C0C701B6010E94B1
:1022E000942F7F936F9381EC93E09F938F930E9441
:1022F000E5030F900F900F900F9080915406882364
:1023000009F48AC080914206811102C00E94D51052
:102310000AE816E0C7E0D0E0F8015291429132910C
:1023200022918F01C701B6010E941D2F811131C07A
:10233000FE01EE0FFF1FEE0FFF1FE659F94F10824F
:10234000118212821382DE01AA0FBB1FA65AB94F57
:1023500011961C921E92C730D105E9F02196448156
:1023600055816681778140835183628373831482B0
:1023700015821682178212968D919C911397119651
:102380009C938E9313961C921E92129734961296DB
:10239000E2CF219708F680919606909197060197D3
:1023A00097FD05C0909397068093960604C01092FF
:1023B0009706109296068091960690919706209126
:1023C0009406309195062817390724F01092950647
:1023D00010929406892B01F5809171008D7F809376
:1023E0007100809190008F738093900010929006FE
:1023F00010929106109292061092930610928C06FB
:1024000010928D0610928E0610928F0610928B06F7
:1024100010928A0610925406DF91CF911F910F916E
:10242000FF90EF90DF90CF900895CF92DF92EF92E0
:10243000FF92CF93DF936B017C01D42FC52F809146
:10244000480780FF14C05F934F93C701B6010E94F5
:10245000942F7F936F9382EA93E09F938F930E94D0
:10246000E5030F900F900F900F900F900F908091B9
:102470004206811102C00E94D5108091740780FF2E
:1024800046C0809196069091970608970CF03FC041
:10249000809171008D7F809371008091550681112C
:1024A0000E94181181E08093540610924106109208
:1024B000400620E030E0A901C701B6010E94DE30ED
:1024C0001816DCF48091960690919706FC01EE0FA9
:1024D000FF1FEE0FFF1FE659F94FC082D182E28243
:1024E000F382FC01EE0FFF1FE65AF94FD083C18340
:1024F0000196909397068093960680917100826072
:102500008093710080919000806880939000DF91AB
:10251000CF91FF90EF90DF90CF9008958091740756
:1025200081700895809174078160809374070E9480
:10253000A5240E94050D40E062E070E087E793E08B
:102540000C94571040E062E070E087E693E00E9450
:1025500057102FEF81EE94E0215080409040E1F73A
:1025600000C000000E941811809174078E7F809334
:1025700074070C94A5248091980690E001968770CA
:1025800099278093980608958091980690E0079681
:10259000877099278093980608958F929F92AF92A3
:1025A000BF92CF92DF92EF92FF92CF93DF936B01B6
:1025B0007C01C0914006D0914106BE0180E090E0D0
:1025C0000E94CA2F4B015C01A701960160E070E0F8
:1025D0008CE594E40E94222F9B01AC01C501B4015B
:1025E0000E94E3300E949B2F9B01E09198068E2E63
:1025F000912C48E08416910408F044C2F401E15A99
:10260000FF4F0C94FB321092AF0380E090E0A0E00B
:10261000BFE38093B0039093B103A093B203B09350
:10262000B30310924306109244061092450610928E
:10263000460628C21092AF03109243061092440639
:1026400010924506109246066431710528F46A30EE
:10265000710508F449C104C0693C710508F044C122
:1026600080E090E0A0E8BEE373C01092AF03109248
:10267000430610924406109245061092460620E04A
:1026800030E040EA52E4C701B6010E941D2F87FDE9
:10269000F9C120E030E040E253E4C701B6010E94F6
:1026A0001D2F87FF2FC00E944D3368E270E00E940B
:1026B000E732BC01645C7F4F072E000C880B990B3E
:1026C0000E94CC2F6B017C018091400690914106C5
:1026D0008B309105C8F18531910508F080C165E125
:1026E00070E0681B790B80E090E00E94CA2F20E028
:1026F00030E040E05FE30E94E33020E030E040E281
:1027000051E4A8C020E030E040EA53E4C701B6013C
:102710000E941D2F87FF2CC00E944D3368EE73E08E
:102720000E94E732BC0168517C4F072E000C880BD9
:10273000990B0E94CC2F6B017C01809140069091F7
:1027400041068630910568F480E090E0A0E0BFE3A8
:102750008093B0039093B103A093B203B093B303FB
:1027600091C18531910508F03AC165E170E062C020
:1027700020E030E040E254E4C701B6010E941D2F82
:1027800087FF2FC00E944D3360ED77E00E94E73253
:10279000BC016854744F072E000C880B990B0E94E3
:1027A000CC2F6B017C0180914006909141068031D5
:1027B000910550F28531910508F011C165E170E095
:1027C000681B790B80E090E00E94CA2F20E030E087
:1027D00040E05FE30E94E33020E030E040EA50E474
:1027E00039C020E030E040EA54E4C701B6010E945D
:1027F0001D2F87FF47C10E944D3360ED77E00E9497
:10280000E732BC016854744F072E000C880B990BFB
:102810000E94CC2F6B017C01809140069091410673
:102820008432910508F490CF8333910508F0D7C026
:1028300063E370E0681B790B80E090E00E94CA2F90
:1028400020E030E040E05FE30E94E33020E030E051
:1028500040E751E40E94222F7CC041E04093AF0347
:1028600010924306109244061092450610924606B6
:102870006431710540F46A30710560F520E030E0A4
:1028800040E85EE32BC0693C710508F0A8C080E019
:1028900090E00E94CA2F20E030E040EA51E40E941C
:1028A000B02E20E030E044E353E40E94222F9B014D
:1028B000AC010E94E33020E030E040E05EE30E94A3
:1028C000E3309B01AC0160E070E080E09EE30E9499
:1028D000B02E3FC020E030E040E05FE3C701B6012A
:1028E0000E94E3306B017C0180E090E0A0E0BEE359
:1028F0002FCF21E02093AF0310924306109244069D
:1029000010924506109246064AE0469F9001479F66
:10291000300D1124C90168EB7BE00E94D332BC0169
:102920006C5D754077FF03C0719561957109072E45
:10293000000C880B990B0E94CC2F2EE333EC4EE257
:1029400059E30E94E33020E030E040EC5EE30E9477
:10295000B12E6093B0037093B1038093B203909350
:10296000B30390C081E08093AF03109243061092AE
:1029700044061092450610924606CE0183709927B0
:10298000892BE1F0BE016170772780E090E00E9422
:10299000CA2F20E030E040E05EE30E94E33020E018
:1029A00030E040E45FE30E94B12E6093B003709387
:1029B000B1038093B2039093B3030CC080E090E026
:1029C000A0E0BFE38093B0039093B103A093B20360
:1029D000B093B303C770DD27CD2B09F053C010921D
:1029E000B0031092B1031092B2031092B3034AC025
:1029F00041E04093AF0310924306109244061092B8
:102A0000450610924606812C912CA12C9FE3B92EED
:102A10008092B0039092B103A092B203B092B3033C
:102A20002739310578F180E090E00E94CA2F20E03C
:102A300030E047E153E40E94B02E20E030E04AE766
:102A400054E40E94222F20E030E048E452E40E9447
:102A5000E33020E030E040EA51E40E9412300E946E
:102A6000942F660F771F660F771FFB01E254FA4F12
:102A70002081318142815381C701B6010E94E33038
:102A80006B017C01C701B601DF91CF91FF90EF9000
:102A9000DF90CF90BF90AF909F908F9008958091DE
:102AA000B10681110C94030D08950C945A050E94EF
:102AB0004F151092B10640E068E070E085E394E0C5
:102AC0000C9457101092B00640E068E070E085EB7F
:102AD00093E00C9457100E944F152091570530E059
:102AE0002F5F3F4F237033272093570548E2429FC3
:102AF000C001439F900D112440E065E070E08B54CD
:102B00009B4F0C945710CF938091AD06882309F406
:102B100042C08091990690919A06009781F40E9494
:102B2000552690939A068093990620919B0630E053
:102B30002115310571F480919C0690E00BC00E9434
:102B4000612620915505309156052817390738F32D
:102B500022C0C9010197F901E356F94FC0812091C4
:102B6000B106222331F0FC01E356F94F80810E9427
:102B7000FF0C8091B106882319F08C2F0E94F90C6C
:102B800080919B0690E0019660919C0670E00E9407
:102B9000E73280939B06CF910895089581E080935A
:102BA000B10640E068E070E085E794E00E945710CD
:102BB0000C94CD15089581E08093B00640E068E064
:102BC00070E085EF93E00E9457100C94DA15EF92B5
:102BD000FF921F93CF93DF93CDB7DEB7A3970FB6C6
:102BE000F894DEBF0FBECDBF7C0186E2E8168CE50F
:102BF000F80641F4FB018281882309F450C00E9449
:102C0000CE15AAC0F7E2EF16FCE5FF0641F4FB0182
:102C10008281882309F443C00E9457159DC0F8E2C1
:102C2000EF16FCE5FF0649F4FB0182818823B9F128
:102C30008091B1068111F0CFE2CFFCE2EF16FCE506
:102C4000FF0639F4FB018281882349F10E94DB15DC
:102C500083C0FDE2EF16FCE5FF0639F4FB0182813B
:102C60008823E9F00E94621577C0FEE2EF16FCE5CA
:102C7000FF0649F4FB018281882389F08091B00628
:102C80008111F0CFE3CFF9E2EF16FCE5FF0639F44E
:102C9000FB018281882319F00E946B155DC0909121
:102CA000B106911105C08091B006882309F4D8C0FF
:102CB000FB014281442309F451C0F0EEEF16F10408
:102CC00061F40E944F1581E08093AF061092AE062A
:102CD0001092AD0610929C063FC082EEE816F104F9
:102CE00071F40E944F158091AF06882319F081E09E
:102CF0008093AE061092AF061092AD062DC0E3EEA3
:102D0000EE16F10491F48091AE06882339F10E9409
:102D10004F151092AF0681E08093AD0610929B068E
:102D200010929A061092990617C0F2E5EF16F10478
:102D300031F480915505909156050A9709C081E5B7
:102D4000E816F10459F480915505909156050A96BC
:102D5000909356058093550580E083C08091570578
:102D600081110AC0FB01108180915A05180F135080
:102D700080915805180F4AC08130A1F4FB011081E1
:102D800080915A05180F105E20915805120F81810D
:102D900024E030E0281B3109822F880F880F280F8C
:102DA000120F3DC0823099F4FB01108180915A05C9
:102DB000180F105E80915805180F818124E030E0D3
:102DC000281B3109F7E02F9F100D112428C08330F4
:102DD00021F583E2EBE8F5E0DE01119601900D921A
:102DE0008A95E1F7FB01808121E030E02C0F3D1F47
:102DF000280F311DE0915805F0915905E20FF31F9E
:102E000010915A0513508081180FFB01818124E035
:102E100030E0281B3109FCE0D6CF10915A0544233D
:102E2000A1F0992319F0812F0E94F90C8091AF062F
:102E3000882381F080919C06E82FF0E0E356F94F5B
:102E400010838F5F80939C0605C0992319F0812F12
:102E50000E94FF0CC7010E94551591E0892701C00F
:102E600081E0A3960FB6F894DEBF0FBECDBFDF9111
:102E7000CF911F91FF90EF9008950F931F93CF93E1
:102E8000DF93C62FD42F122FFC0182818823C9F033
:102E90006093B4060E9455269093B3068093B206C1
:102EA00080E28C0F883008F057C0C77081E001C005
:102EB000880FCA95EAF7DF91CF911F910F910C947B
:102EC000441B8091B406681330C08091B206909183
:102ED000B3060E946126883C910538F500E20D0F8B
:102EE000CD17B9F080E28C0F883040F4C77081E0D4
:102EF00001C0880FCA95EAF70E944B1B083028F5DD
:102F000081E09D2F977001C0880F9A95EAF70E9483
:102F1000441B812F0E94311B0830F0F4D77081E0F0
:102F200001C0880FDA95EAF70AC080E28C0F88307A
:102F300098F4C77081E001C0880FCA95EAF7DF9165
:102F4000CF911F910F910C944B1B812FDF91CF914B
:102F50001F910F910C94311BDF91CF911F910F9115
:102F600008959C01CB01233F4CE53407F9F078F438
:102F7000283DFCE53F07B9F0293D4CE5340711F148
:102F8000273D3C4531F526E241EE61EE1EC0253F6E
:102F9000FCE53F0799F070F0263F3C45D1F427E26D
:102FA00045EE66EE12C027E245EE0EC026E241EE87
:102FB00060EE0BC027E245EE64EE07C026E241EE6C
:102FC00062EE03C028E241E065EE0E943D1780E01A
:102FD0000895FC018281882319F01092B4060895A7
:102FE00081E008959093BA068093B9060895E09120
:102FF000B906F091BA06309721F00190F081E02DEA
:10300000099480E00895EF92FF921F93CF93DF938E
:10301000FC01A091B906B091BA06109709F442C01C
:1030200080916705882341F080917C0787FF04C069
:103030008081818385E08083EF011296ED91FC9180
:103040001397CE0109958091480782FF2BC080FF1E
:1030500004C086EF93E00E944C0318E080EFE82E56
:1030600083E0F82E8091480780FF0BC088811F9273
:103070008F93FF92EF920E94E5030F900F900F90B5
:103080000F90115021961111EDCF8091480780FFCC
:1030900009C08EEE93E0DF91CF911F91FF90EF90EA
:1030A0000C944C03DF91CF911F91FF90EF90089506
:1030B0002091B7063091B8062817390771F0909320
:1030C000B8068093B706E091B906F091BA0630973A
:1030D00021F00680F781E02D099408952091B5062E
:1030E0003091B6062817390771F09093B606809391
:1030F000B506E091B906F091BA06309721F0008448
:10310000F185E02D0994089585B7806885BF85B75E
:10311000806885BF089508950C948B180C948C18C2
:103120000C948B180C948B180E9484180E94901891
:103130000C948E1881E008950E944C260E945E0B2C
:103140000E94D5260C949218CF93C82F80914807DF
:1031500082FF1EC080FF04C08FE094E00E944C03F9
:103160008091480780FF0CC01F92CF938AE094E0C3
:103170009F938F930E94E5030F900F900F900F90F5
:103180008091480780FF04C088E094E00E944C03CF
:103190008C2FCF910C943A065F926F927F928F9210
:1031A0009F92AF92BF92CF92DF92EF92FF920F93D6
:1031B0001F93CF93DF93CDB7DEB72A970FB6F8945E
:1031C000DEBF0FBECDBF0E94C20B0E949A188111B4
:1031D00011C08FEF89838A831B820E9455268160EC
:1031E000782F9D838C8349815A816B818D810E94C8
:1031F000871956C09CEB692E96E0792E00E010E00E
:1032000088248394912C502E802F0E940E0B6C01E9
:10321000F301A190B1903F01A826B926A114B104F1
:1032200031F40F5F1F4F0430110569F7D2CF809141
:10323000480781FD0E94170B80E090E07401082E82
:1032400002C0EE0CFF1C0A94E2F795012E213F21EB
:10325000232B09F18E835F82CE20DF2081E0CD28F1
:1032600009F480E088870E9455268160782F9A872C
:1032700089874E815F8168858A850E948719000F42
:10328000111FF801E454F94F80819181E826F92655
:10329000F182E08205C001968C30910579F6C1CFAC
:1032A0000E94F7179091BB068917D9F00E94F71773
:1032B0008093BB062A960FB6F894DEBF0FBECDBF33
:1032C000DF91CF911F910F91FF90EF90DF90CF9002
:1032D000BF90AF909F908F907F906F905F900C9475
:1032E000A4182A960FB6F894DEBF0FBECDBFDF91AB
:1032F000CF911F910F91FF90EF90DF90CF90BF90F3
:10330000AF909F908F907F906F905F900895CF9334
:10331000DF93CDB7DEB72B970FB6F894DEBF0FBEA5
:10332000CDBF4F83588769877A878B87DE011196D7
:1033300086E0FD0111928A95E9F785E0FE01379656
:1033400001900D928A95E1F749815A816B817C81C8
:103350008D819E810E9477202B960FB6F894DEBF58
:103360000FBECDBFDF91CF910895FC018081918187
:103370000E944B230895882309F413C1682F8238D3
:10338000C1F40E94F71781FD0CC169E380915B05D0
:1033900090915C050E94A3250E94D8232FEF81EE17
:1033A00094E0215080409040E1F700C0000069E3C4
:1033B00019C08338F9F40E94F71780FDF2C063E565
:1033C00080915B0590915C050E94A3250E94D82303
:1033D0002FEF81EE94E0215080409040E1F700C053
:1033E000000063E580915B0590915C050E94AE252D
:1033F0000C94D8238438C1F40E94F71782FDD1C001
:1034000067E480915B0590915C050E94A3250E9472
:10341000D8232FEF81EE94E0215080409040E1F7D7
:1034200000C0000067E4DECF8CEF860F813A38F4ED
:1034300080915B0590915C050E94A325D9CF80E225
:10344000860F883048F4677081E001C0880F6A9564
:10345000EAF70E948D23CCCF8BE5860F833070F482
:10346000653A29F0663A31F083E890E005C081E8DA
:1034700090E002C082E890E00C94581888E5860F2E
:10348000873108F08EC0683A09F445C0693A09F4FA
:1034900045C06A3A09F445C06B3A09F445C06C3A34
:1034A00009F445C06B3B09F445C06C3B09F445C0C9
:1034B0006D3A09F445C0603B09F445C06E3A09F421
:1034C00045C06F3A09F445C0613B09F445C0623B11
:1034D00009F445C0633B09F445C0643B09F445C0A9
:1034E000653B09F445C0663B09F445C0673B09F4F8
:1034F00045C0683B09F445C0693B09F445C06D3BD4
:1035000009F445C06E3B09F445C06A3B09F445C067
:1035100080E090E044C082EE90E041C089EE90E00F
:103520003EC08AEE90E03BC085EB90E038C086EB71
:1035300090E035C083EB90E032C084EB90E02FC088
:1035400087EB90E02CC08CEC90E029C08DEC90E0F3
:1035500026C083E891E023C08AE891E020C082E998
:1035600091E01DC084E991E01AC081E292E017C0A9
:1035700083E292E014C084E292E011C085E292E01E
:103580000EC086E292E00BC087E292E008C08FE6B0
:1035900090E005C080E790E002C08AE292E00C94DF
:1035A0006E180895882309F45BC0682F823879F477
:1035B0000E94F71781FF54C069E380915B059091E9
:1035C0005C050E94A3250E94D82369E310C08338BC
:1035D000B1F40E94F71780FF43C063E580915B055B
:1035E00090915C050E94A3250E94D82363E58091F9
:1035F0005B0590915C050E94AE250C94D82384381D
:1036000079F40E94F71782FF2BC067E480915B0575
:1036100090915C050E94A3250E94D82367E4E7CF20
:103620008CEF860F813A18F380E2860F883048F4D9
:10363000677081E001C0880F6A95EAF70E949323C2
:10364000DCCF8BE5860F833020F480E090E00C9493
:103650005818685A673120F480E090E00C946E1896
:103660000895CF93C82F0E94BB19C93349F42FEF97
:1036700087EE93E0215080409040E1F700C00000C9
:103680008C2FCF910C94D21A882321F00E948D2385
:103690000C94D8230895882321F00E9493230C943E
:1036A000D8230895CF92DF92EF92FF920F931F934A
:1036B000CF93DF937C01062FC72FFC011581129554
:1036C0001F70D281D1110E94AA230E9483238823D4
:1036D00079F0DD2369F080E2800F883048F082E0E5
:1036E0000E9422240E94832391E0D82ED92601C073
:1036F000D12CCC2EC2948FE0C8228C2D90E0FC01FE
:10370000E959FF4F0C94FB328C2F807FCF708823B8
:1037100011F0C295C07FDD2399F0CC2309F482C15A
:1037200080E2800F883010F0011104C08C2F0E94BD
:103730008D2303C08C2F0E949D230E94D82372C129
:10374000802F0E94D21ACC2309F491C180E2800F0D
:10375000883010F0011104C08C2F0E94932303C005
:103760008C2F0E94A3230E94D82381C18C2F807F9D
:10377000CF70803211F0C295C07F002319F0013064
:10378000C9F022C0DD2371F0112341F0113031F472
:103790000E94BD238C2B0E94C52369C10E94BD23BA
:1037A0008C2B1DC0112319F0113009F460C10E9447
:1037B000CE2325C0DD2321F0163008F058C10EC0FD
:1037C000153008F054C11BC0DD2361F0112331F026
:1037D000F701858180FF26C18F7085838C2F0E9421
:1037E000441B45C1112359F0093309F02CC1FFEFE7
:1037F00027EE83E0F15020408040E1F722C18C2F7A
:103800000E944B1B34C18C2F86958695837019F0CE
:10381000813061F02CC1DD2321F0802F9C2F93702B
:1038200002C080E090E00E94581829C1DD2321F0F9
:10383000802F9C2F937002C080E090E00E946E1851
:103840001EC18C2F837009F045C0D11114C1402FC7
:10385000429546954770440F440F602F6F70862F36
:1038600090E0A0E0B0E0042E04C0880F991FAA1FCA
:10387000BB1F0A94D2F704FF10C00FE010E020E055
:1038800030E004C0000F111F221F331F4A95D2F7EA
:10389000009510952095309503C000E010E0980148
:1038A000C695C695C370BC01CD01602B712B822BD0
:1038B000932BC23049F058F4C13019F00E94C8214E
:1038C000DAC00E94B621D7C00E94DA21D4C00E947B
:1038D000B421D1C0DD2319F08C2F817001C08695F1
:1038E000882309F4C8C0402F429546954770440F7D
:1038F000440F602F6F70862F90E0A0E0B0E0042EA0
:1039000004C0880F991FAA1FBB1F0A94D2F704FF97
:1039100010C00FE010E020E030E004C0000F111FE5
:10392000221F331F4A95D2F70095109520953095A8
:1039300003C000E010E09801C695C695C370BC01B5
:10394000CD01602B712B822B932BC23049F058F4A0
:10395000C13019F00E948D228EC00E947B228BC044
:103960000E949F2288C00E94EE2185C0CF70DD2377
:1039700039F08C2F0E941422802F0E94441B7BC0A0
:10398000802F0E944B1B8C2F0E94352274C0023F57
:1039900001F128F4003F41F0013FA1F03FC0033F97
:1039A000F9F0043F39F13AC0DD2341F0153008F059
:1039B0005EC08C2F8F710E945A2259C0163008F0B9
:1039C00056C0F7CFDD2339F08C2F8F710E9414225F
:1039D0004EC0DD23C9F38C2F8F710E94352247C062
:1039E000DD2329F08C2F8F710E94FF2140C00E949F
:1039F000FA213DC0DD2349F0CF718C2F0E941422A3
:103A000063E08C2F0E940D2432C081E00E942224AA
:103A1000123068F182E00E94222429C0DD2331F0B7
:103A2000112391F2802F0E94BB1921C0112399F21A
:103A3000093349F49FEFE7EEF3E09150E040F040A6
:103A4000E1F700C00000802F0E94D21A10C04C2F56
:103A50004F70602FC7010E9459080E9425210FC096
:103A60004C2F4F70602FC7010E945C0808C088EF80
:103A70008C0D843020F40E94F7170E943A06DD2056
:103A8000C9F00E947F2380FD15C0F70112820E94B9
:103A900079230E941422C7010E94631D0E9479238A
:103AA000DF91CF911F910F91FF90EF90DF90CF901A
:103AB0000C943522DF91CF911F910F91FF90EF90E1
:103AC000DF90CF9008950F931F93CF93DF93EC0176
:103AD000988189812B813C81232B31F08F3F31F4F8
:103AE00081E09F3F19F403C081E001C080E080FDC8
:103AF00013C0CE010E946206882371F0688179812B
:103B00008A810E9456238C010E94B1220E94A22128
:103B1000B801CE010E94521BDF91CF911F910F91EE
:103B200008950E94AA230E94BA230E94D82380E00D
:103B300090E00E94581880E090E00C946E188091FC
:103B40005B0590915C050E94B9250C94911D0E9423
:103B50009A230C949F1DE92FE295EF704E2F50E0B1
:103B6000FA013297EE30F105B0F4E958FF4F0C94AA
:103B7000FB32803F91F018F4883E68F40EC0843F19
:103B800051F40BC0883E48F0813F29F406C093FBF6
:103B9000882780F9089580E0089581E008950E94C3
:103BA0004B230E94AB1D0895CF93DF9300D000D02C
:103BB0001F92CDB7DEB70F900F900F900F900F9020
:103BC000DF91CF910895CF93DF9300D000D000D044
:103BD000CDB7DEB726960FB6F894DEBF0FBECDBFC9
:103BE000DF91CF9108951F93CF93DF93C091C506C6
:103BF00016E08091C606C81799F0D0E01C9FF0012E
:103C00001D9FF00D1124E953F94F408151816281CC
:103C10007381848195810E94E31D2196C770E9CF4D
:103C2000DF91CF911F9108954091F7065091F806CA
:103C30006091F9067091FA068091FB069091FC065E
:103C40000C94E31DCF938091FC0682958F7009F050
:103C50005FC08091F906882309F45AC08091C50697
:103C6000B091C6067091F706A091F8064091FA0649
:103C70005091FB0691E07F3F09F090E0692FC6E08C
:103C80008B1709F445C04115510521F0AF3F21F0D4
:103C900020E003C021E001C0262F90E020FD35C0C8
:103CA000C89FF001C99FF00D1124E953F94F2181FC
:103CB0002A132BC02081271328C02281211125C05F
:103CC000238134812417350710F421503109241B36
:103CD000350B283C3105C8F42091FC062F7020617B
:103CE0002093FC0626E0289FF001299FF00D112467
:103CF000E453F94F80818F708061808387EF96E075
:103D00000E94631DCF910C94F31D01968770B8CF6C
:103D1000CF910895AF92BF92CF92DF92EF92FF9230
:103D20000F931F93CF93DF93CDB7DEB761970FB695
:103D3000F894DEBF0FBECDBF8C0185E0F801DE0137
:103D40001D9601900D928A95E1F7D8014C9111963C
:103D50005C9111971296EC903091F7066091F806FD
:103D60008091FA069091FB06009731F06F3F31F495
:103D700021E03F3F19F403C021E001C020E0B22F51
:103D8000B170BB2E20FD60C1F801C380D480A0902B
:103D9000F906AA2009F4EEC02091FC06C816D9063F
:103DA00028F0D601A81BB90BCD0104C080959095D1
:103DB0008C0D9D1DFF24F394883C910580F0F12C1F
:103DC000207F09F09CC07C2DD98AC88A6E2D8989F4
:103DD0000E94D41D87EF96E00E94631D2DC1822FA3
:103DE000807F09F054C0561314C0431312C0FE2C38
:103DF000E1100FC02F7020612093FC060E94141E5A
:103E000087EF96E00E94631D8091FC06F801858390
:103E10005CC1CD2831F05F3F31F481E04F3F19F4B0
:103E200003C081E001C080E080FD03C081E08E25F9
:103E300002C080E090E0F82FF170FF2E80FF1CC0E0
:103E40008091C5062091C60636E0821709F41AC192
:103E500090E0389FF001399FF00D1124E953F94F9C
:103E60006181561306C06081461303C06281E61269
:103E700003C001968770E9CFFE2CEE2009F425C11E
:103E80008091FC0681608093FC06F12C1EC15613C4
:103E900009C0431307C0E11005C08091FC06F8017A
:103EA0008583A4C04D875E878D859E850E94CF1D2A
:103EB000882379F1EE2069F12091FC06822F82950A
:103EC0008F7090E0029774F08091F7069091F80659
:103ED00098878F831986DB86CA862C87CE01079642
:103EE0000E94631D86E0F801A7EFB6E001900D92F5
:103EF0008A95E1F70E94221E0E94141E0DC05617DB
:103F000071F04D875E878D859E850E94CF1D811142
:103F10001AC0C8010E94631DFF24F394D6C0431346
:103F2000F0CFE110EECF8091FC06F8018583C80147
:103F30000E94631D86E0E7EFF6E0DF011D928A959F
:103F4000E9F7FA2CC2C0EE2021F32091FC06822F63
:103F500082958F7090E002972CF28091F7069091F5
:103F6000F8069A8389831B82DD82CC822E83CE0160
:103F70000196B6CFC816D90628F0F601E81BF90B52
:103F8000CF0104C0809590958C0D9D1D883C9105B6
:103F900048F0F12C7C2DD98AC88A6E2D89890E941F
:103FA000D41D4AC0FE2CEE2009F4B3CF561333C003
:103FB000431331C02091FC0620FD24C0822F82953E
:103FC0008F70482F50E041155105E1F0D80115964A
:103FD0002C9315974F30510549F08F5F982F92958C
:103FE000907F822F8F70892B15968C93C8010E9429
:103FF000631D86E0F801A7EFB6E001900D928A9567
:10400000E1F73DC086E0F801A7EFB6E001900D9220
:104010008A95E1F75AC04D875E878D859E850E94FF
:10402000CF1D81115FCF8091FC0681608093FC06DB
:10403000C8010E94631D49C0E7EFF6E086E0DF019A
:104040001D928A95E9F71BC0EE2009F462CF4D87D7
:104050005E878D859E850E94CF1DF82E882309F4EA
:1040600058CF86E0F801A7EFB6E001900D928A954F
:10407000E1F787EF96E00E94B5190E94221E0E9488
:10408000141E23C04D875E878D859E850E944B231D
:10409000292F22952F70223028F49F7039F081113A
:1040A00005C00BC0243028F49F7049F4805E88302E
:1040B00020F0C8010E94631DBF2CFB2C06C0D80154
:1040C00015969C91907F91F7F8CF8F2D61960FB642
:1040D000F894DEBF0FBECDBFDF91CF911F910F913E
:1040E000FF90EF90DF90CF90BF90AF9008951F9317
:1040F000CF93DF93CDB7DEB72C970FB6F894DEBF22
:104100000FBECDBF4F83588769877A878B879C877F
:10411000CE0107960E948A1E8823D1F09F81888550
:104120002A853B85232B31F08F3F31F481E09F3F7F
:1041300019F403C081E001C080E080FD47C04F81D9
:10414000588569857A858B859C850E94E31D3EC0D4
:1041500086E0FE013796DE01119601900D928A9558
:10416000E1F7FF81E8856A857B856115710531F08E
:10417000EF3F31F481E0FF3F19F403C081E001C05B
:1041800080E080FD23C02091C60630E0C901019681
:10419000877099274091C50650E084179507F1F183
:1041A000F983EA837D836C8396E0929FD001939F8D
:1041B000B00D1124A953B94FFE01319601900D9213
:1041C0009A95E1F78093C6060E94F31D16E0809150
:1041D000C5069091C606891771F1189FC001112478
:1041E0008953994F0E948A1E882329F1E091C506C0
:1041F0001E9FF0011124E953F94F408151816281E2
:104200007381848195810E94E31D8091C50690E0B1
:104210000196877099278093C506D9CF0E94A71D64
:104220001092C6061092C506E7EFF6E086E0DF01C1
:104230001D928A95E9F72C960FB6F894DEBF0FBE53
:10424000CDBFDF91CF911F910895EF92FF920F9311
:104250001F93CF93DF938C01892B09F46CC0F12C51
:10426000EE24E394E8012196F8018491843740F428
:10427000843008F051C0813081F0823019F15BC088
:10428000853709F444C0A8F19CE7980F903708F0EF
:1042900052C08F770E94D21A41C00E5F1F4FFE019D
:1042A000849190E2980F983050F48770FE2D01C0F1
:1042B000FF0F8A95EAF78F2F0E94AD2314C00E944A
:1042C000BB192DC00E5F1F4FFE01849190E2980F25
:1042D000983060F48770FE2D01C0FF0F8A95EAF7D1
:1042E0008F2F0E94B3230E94D82319C00E94D21A94
:1042F00016C00E5F1F4FFE01C491CC2381F08FE9E1
:104300009FE00197F1F700C00000C150F6CF0E5FAB
:104310001F4FFE01F49003C00E94BB198E018F2D28
:10432000882309F49FCFEFE9FFE03197F1F700C050
:1043300000008150F5CFDF91CF911F910F91FF9039
:10434000EF900895089508950C94A3210C94A4214E
:104350000E94A62160931F07709320078093210776
:10436000909322070C94911D0C94A8210F931F93F6
:1043700000911F07109120072091210730912207FB
:10438000602B712B822B932B1F910F910C94A821E2
:104390000F931F9300911F07109120072091210771
:1043A0003091220760237123822393231F910F9161
:1043B0000C94A8210F931F9300911F0710912007C1
:1043C00020912107309122076027712782279327A8
:1043D0001F910F910C94A8210C94C1040E94EC2110
:1043E00060931B0770931C0780931D0790931E0713
:1043F0000C94911D60E070E0CB010C94EE210F93C2
:104400001F9341E050E060E070E08A019B0104C02E
:10441000000F111F221F331F8A95D2F7C901B8015F
:104420001F910F910C94EE210F931F9341E050E0E8
:1044300060E070E004C0440F551F661F771F8A9527
:10444000D2F780911B0790911C07A0911D07B09196
:104450001E078A019B01082B192B2A2B3B2BC90114
:10446000B8011F910F910C94EE210F931F9341E01F
:1044700050E060E070E004C0440F551F661F771FD6
:104480008A95D2F7409550956095709580911B075D
:1044900090911C07A0911D07B0911E078A019B01F6
:1044A000082319232A233B23C901B8011F910F9127
:1044B0000C94EE210F931F9341E050E060E070E018
:1044C00004C0440F551F661F771F8A95D2F780914D
:1044D0001B0790911C07A0911D07B0911E078A0130
:1044E0009B01082719272A273B27C901B8011F91DB
:1044F0000F910C94EE210F931F9300911B071091C5
:104500001C0720911D0730911E07602B712B822BF9
:10451000932B1F910F910C94EE210F931F930091F9
:104520001B0710911C0720911D0730911E07602367
:104530007123822393231F910F910C94EE210F93EB
:104540001F9300911B0710911C0720911D073091AC
:104550001E0760277127822793271F910F910C94C4
:10456000EE2108952CE0929F800D1124E82FE6950E
:10457000E695E695877051E001C0550F8A95EAF7F8
:1045800085E0E89FF0011124E350F94F20E030E08E
:1045900070E04081CB01022E02C0969587950A9467
:1045A000E2F78170819584278523842781932F5F8B
:1045B0003F4F2530310569F708952CE0929F800D1B
:1045C0001124682F669566956695982F977085E0FB
:1045D000689FB001112440E050E080E0FB01E40F4F
:1045E000F51FE350F94F208130E0092E02C03695C7
:1045F00027950A94E2F721703327042E01C0220F79
:104600000A94EAF7822B4F5F5F4F4530510531F72F
:104610000895BF92CF92DF92EF92FF920F931F9374
:10462000CF93DF938C01C0901B07D0901C07E090C4
:104630001D07F0901E0780911F0790912007A09101
:104640002107B0912207C82AD92AEA2AFB2ACFE1FA
:10465000D0E0D701C6010C2E04C0B695A79597955A
:1046600087950A94D2F780FD04C0219790F7B12C6A
:1046700007C0BC2EB8018C2F0E9478080197A9F3BF
:104680008B2DDF91CF911F910F91FF90EF90DF90D5
:10469000CF90BF900895CF93DF93EC010E94092340
:1046A000BE010E947808DF91CF9108951F93CF93A8
:1046B000DF93EB019091C406992321F0CB010E9476
:1046C0004B2313C0882349F0CB010E940923182FE4
:1046D000682FCE010E94B22204C0CB010E94DD22CD
:1046E000182FBE01812F0E947808DF91CF911F9172
:1046F00008958091230785958595859508958091E6
:1047000023078770089590912307977081E009F43B
:1047100080E0089580914707089590914707892B7D
:104720008093470708958095909147078923809348
:104730004707089510924707089590914607892BDF
:10474000809346070895809590914607892380932A
:104750004607089510924607089590914507892BC2
:10476000809345070895809590914507892380930C
:1047700045070895109245070895809124070895EC
:1047800008950C94C0230C94C1239091240798178A
:1047900021F0809324070C94C3230895809124076B
:1047A000882329F01092240780E00C94C3230895F5
:1047B000E0915B05F0915C05809147078083E09173
:1047C0005B05F0915C05908180914607892B808381
:1047D000E0915B05F0915C05908180914507892B04
:1047E000808380912407882381F0E0915B05F0911C
:1047F0005C059081892B808380915B0590915C059D
:104800000E941B2581110E94CE2380915B0590910F
:104810005C050C9403180C94C02398E0899F9001C8
:104820001124262B209323070E9414228091230712
:104830008595859585950C940B241092230780E02F
:104840000C940B24209123078095822380932307C7
:10485000982F977079F430E0482F082E000C550BF4
:104860002417350739F08595859585950E94352261
:104870000C941D24089590931F0680931E0608959E
:104880008295982F937344E0949F900111248C7C1F
:1048900086958695282B822F8575880F2A7A2695EE
:1048A000822B0895CF93DF93D92F0E944024C82FE5
:1048B0008D2F0E9440242C2F30E0322F2227A90177
:1048C000482BCA01DF91CF9108956FEF7FEF80E011
:1048D00090E00C94893380E090E00E94653321E001
:1048E0008C3E9E4F09F020E0822F089582E090E0F8
:1048F0000C945D3383E090E00C945D33682F83E08B
:1049000090E00C946B33CF9384E090E00E945D3391
:10491000C82F81E290E00E945D332C2F30E0A90186
:10492000582BCA01CF910895CF93C92F682F84E0E7
:1049300090E00E946B336C2F81E290E0CF910C9459
:104940006B3387E090E00C945D33682F87E090E054
:104950000C946B33AB01BC018FE090E00C947D3381
:10496000AB01BC0183E190E00C947D3360E070E02A
:10497000CB010C94B02460E070E0CB010E94AA242B
:104980000C94B6246CEE7EEF80E090E00E948933B8
:1049900060E082E090E00E946B3360E083E090E0B2
:1049A0000E946B3310921F0710922007109221076C
:1049B0001092220760E084E090E00E946B3360E098
:1049C00081E290E00E946B3360E085E090E00E941D
:1049D0006B3360E086E090E00E946B336FEF87E01E
:1049E00090E00E946B3340E050E0BA0188E090E034
:1049F0000E947D3360E08DE090E00E946B3340E0E8
:104A000050E0BA0188E190E00E947D3360E087E1E8
:104A100090E00E946B3340E050E0BA018CE190E0FE
:104A20000E947D3360E080E290E00E946B330C9442
:104A3000BB240C94C224FC01329680916705882324
:104A400031F080917C0787FF02C09EE101C096E0B3
:104A500080E0915028F021912223D9F38F5FF9CF84
:104A600008959C01FC0132969FEF80E0419146172A
:104A700089F09F3F19F4411101C0982F8F5F863054
:104A8000A9F79F3F39F0F901E90FF11D97FDFA955C
:104A90006283089508959C012A5F3F4FFC01428183
:104AA000461301C01282019682179307B9F7089541
:104AB000262F2695269526952E3170F4FC01E20FBF
:104AC000F11D677021E030E001C0220F6A95EAF71E
:104AD0008281282B228308958091480780FF0CC093
:104AE0001F926F9380E494E09F938F930E94E5035D
:104AF0000F900F900F900F900895262F26952695D2
:104B000026952E3178F4FC01E20FF11D677021E04B
:104B100030E001C0220F6A95EAF7209582812823B0
:104B2000228308958091480780FF0CC01F926F93E5
:104B300082E294E09F938F930E94E5030F900F9081
:104B40000F900F90089520916705222329F020915E
:104B50007C0727FD0C9458250C943125209167057E
:104B6000222329F020917C0727FD0C947D250C94AD
:104B70004B2520916705FC013296222331F080916C
:104B80007C0787FF02C08EE101C086E0DF011D9235
:104B90008A95E9F7089508950C94CB250C94CB25BC
:104BA000CF930E94CE250E94C20B0E94CC25C0E06C
:104BB0008C2F0E940E0B892B29F4CF5FC430C1F7D4
:104BC00080E001C081E0CF9108950C94CB250C9436
:104BD000E5250E94E72580918207843049F11092F3
:104BE000490720E488E190E00FB6F894A8958093F7
:104BF00060000FBE2093600080E00E943A060E9491
:104C0000E72583B7817F846083BF83B7816083BFDB
:104C10007894889583B78E7F83BF0FB6F894A89554
:104C200080916000886180936000109260000FBEE8
:104C300008950C94CB250E94A71D0E94F7170E948F
:104C40003A060C9419261F920F920FB60F92112458
:104C50008F939F93AF93BF9380914907811113C0A6
:104C60008091780790917907A0917A07B0917B079E
:104C70004196A11DB11D8093780790937907A09369
:104C80007A07B0937B07BF91AF919F918F910F905F
:104C90000FBE0F901F90189582E084BD93E095BDE4
:104CA0009AEF97BD80936E0008952FB7F894809186
:104CB000780790917907A0917A07B0917B072FBF71
:104CC0000895CF92DF92EF92FF920F931F932FB729
:104CD000F894409178075091790760917A07709124
:104CE0007B072FBF6A017B01EE24FF248C0120E0AB
:104CF00030E0C016D106E206F30610F44150510927
:104D00009A01281B390BC9011F910F91FF90EF9059
:104D1000DF90CF90089578941F920F920FB60F9264
:104D200011248F939F93AF93BF93809178079091B5
:104D30007907A0917A07B0917B070196A11DB11D5B
:104D40008093780790937907A0937A07B0937B07B5
:104D5000BF91AF919F918F910F900FBE0F901F90B9
:104D6000189581E08093E00080E28093D800109253
:104D7000C9008FE19EE40197F1F700C0000087E0D1
:104D800090EBDC0180938B0790938C07A0938D07A9
:104D9000B0938E079CE088E10FB6F894A8958093B5
:104DA00060000FBE90936000FFCF0E946B248111C2
:104DB00002C00E9419250E947624809348070E9411
:104DC000832490937D0780937C070E947A24682F28
:104DD00070E080E090E00C94B42180916D0708951C
:104DE00008959FB7F89410924C079FBF9091820747
:104DF000943009F057C09091E9009F703091EC0019
:104E0000232F217030FD20E8922B23E02093E9002E
:104E10002091EB0020FF43C02091EE0027FF3FC010
:104E200020914A07222321F02091E80025FF37C076
:104E300010924A0726E03091E80035FD15C0309108
:104E40008207343061F53091EB0035FD28C02150E8
:104E500021F481E080934A0722C0EFE9FFE0319717
:104E6000F1F700C00000E7CF8093F1008091E800E7
:104E700085FD0AC08091E80080FFFCCF8091E800AA
:104E80008E778093E80006C08FB7F89421E02093D6
:104E90004C078FBF9F709093E90080E008959F704A
:104EA0009093E9008FEF08950F931F93CF93DF93B3
:104EB00000D01F92CDB7DEB78C010E94F629823058
:104EC00011F0843021F584E089831B830A8382E01A
:104ED0008093E9008FEF9091E800815095FD06C026
:104EE00095ED9A95F1F700008111F5CF8091E800DA
:104EF00085FF0DC040E050E063E070E0CE01019618
:104F00000E94132A8091E8008E778093E8000F902A
:104F10000F900F90DF91CF911F910F910895CF9334
:104F2000DF9300D01F92CDB7DEB7209182072430E7
:104F300031F523E02983805891099B838A8382E09D
:104F40008093E9008FEF9091E800815095FD06C0B5
:104F500095ED9A95F1F700008111F5CF8091E80069
:104F600085FF0DC040E050E063E070E0CE010196A7
:104F70000E94132A8091E8008E778093E8000F90BA
:104F80000F900F90DF91CF910895CF93DF93EC01B5
:104F90000E94F629823011F08430D9F5809167059E
:104FA000882339F080917C0787FF03C060E282E0AC
:104FB00002C068E081E08093E9008FEF9091E80003
:104FC000815095FD06C095ED9A95F1F7000081118D
:104FD000F5CF8091E80085FF1CC0809167058111A5
:104FE00005C040E050E068E070E003C070E040E0E1
:104FF00050E0CE010E94132A8091E8008E778093C2
:10500000E80080E2FE01ADE4B7E001900D928A95E0
:10501000E1F7DF91CF91089583E894E00E944C037B
:1050200080918107811109C00E94A42B0E94012C4C
:105030008091E20084608093E20008958FE794E01D
:105040000E944C031092810708958BE794E00C9422
:105050004C0387E794E00C944C0383E794E00E94B0
:105060004C030C941B2620914B072F5F822F62E389
:105070000E94C732992319F020934B07089510928C
:105080004B0780914C07882371F18091820784300F
:1050900041F58091E9008F702091EC00922F917082
:1050A00020FD90E8892B93E09093E9009091EB002C
:1050B00090FF14C09091EE0097FF10C09091E8000F
:1050C00095FF03C01092F100F9CF9091E80090FF96
:1050D00005C09091E8009E779093E8008F708093D0
:1050E000E90010924C07089542E061EC81E00E94D3
:1050F0001D2B42E261EC82E00E941D2B42E261EC3A
:1051000083E00C941D2B80918407833009F460C0E8
:1051100030F4813071F0823009F499C008958A30FA
:1051200009F485C08B3009F46BC0893009F0A7C041
:1051300020C080918307813A09F0A1C08091E800E6
:10514000877F8093E8008091870790918807892B5B
:1051500021F460E28DE497E003C060E080E090E03D
:1051600070E00E945E2A8091E8008B778093E800CF
:10517000089580918307813209F081C0809187076B
:1051800090918807029708F07AC08091E800877FA5
:105190008093E8008091E80082FD05C0809182073D
:1051A0008111F8CF6CC02091F3008091F20090E063
:1051B000922B029729F48091F1008B7F813021F4AA
:1051C0008091F10080936D078091E8008B7753C048
:1051D00080918307813A09F052C0809187079091AE
:1051E0008807892B09F04BC08091E800877F809366
:1051F000E8008091E80080FFFCCF8091670536C011
:10520000809183078132D9F5809187079091880733
:10521000892BA9F58091E800877F8093E8000E94A0
:10522000522B80918507809367050C94A71D809170
:105230008307813221F58091E800877F8093E80021
:105240000E94522B8091860780936E07089580916B
:105250008307813AA1F48091E800877F8093E8007A
:105260008091E80080FFFCCF80916E078093F10071
:105270008091E8008E778093E8000C94522B08957B
:1052800084B7877F84BF0FB6F894A895809160009B
:10529000886180936000109260000FBE80E8809368
:1052A0006100109261000E9494180E94A42B0E9439
:1052B000012C8091E20084608093E20081EF96E20D
:1052C0000E943B2478940E94952E0E949C188DE5A4
:1052D00095E00E94F21782E694E00E944C038091D0
:1052E0008207853089F48EE594E00E944C030E9489
:1052F000E92580918007882391F30E94D025882397
:1053000071F30E94FD29EBCF0E94CC18E8CF0C94DA
:105310008929292F332723303105C9F060F4213042
:10532000310581F02230310509F047C08BE590E06E
:105330002DEA34E046C02132310511F12232310527
:1053400061F13BC082E190E028E035E03AC0992766
:105350008130910561F040F08230910559F003975A
:1053600061F5E7E8F4E008C0E9EAF4E005C0EDE93A
:10537000F4E002C0EDE8F4E0849190E09F0121C0E8
:1053800063307105D0F4660F771FFB01E95EF94FBA
:105390002081318189E090E014C06330710568F4A8
:1053A000FB01EE0FFF1FEF5EF94F20813181FB0102
:1053B000E25FF94F808190E004C080E090E020E05F
:1053C00030E0FA013183208308950895CF93C82FE8
:1053D0000E94E529C0936F07CF91089580918207BD
:1053E000843011F081E0089582E0089580916F0784
:1053F000811102C00C94EE29089580E189BD82E1FB
:1054000089BD09B400FEFDCF8091D8008F7D8093C7
:10541000D8008091E00082608093E0008091E000FD
:1054200081FDFCCF0895CF92DF92EF92FF920F9310
:105430001F93CF93DF93EC018B017A010E94712BB4
:10544000811133C0E114F10439F0F70180819181B9
:10545000081B190BC80FD91FC12CD12C0115110520
:1054600019F18091E80085FD16C08091E8008E77E3
:105470008093E800E114F10449F0F7018081918103
:10548000C80ED91ED182C08285E00FC00E94712B48
:10549000882321F30AC089918093F10001501109FA
:1054A000FFEFCF1ADF0ADACF80E0DF91CF911F91B3
:1054B0000F91FF90EF90DF90CF9008952091890792
:1054C00030918A072617370748F06115710539F4BE
:1054D0002091E8002E772093E80001C0B901FC017B
:1054E00020E06115710579F1809182078823F1F13F
:1054F0008530F1F18091E80083FD3CC08091E800A7
:1055000082FD2EC08091E80080FFEBCF2091F30058
:105510008091F20090E0922B6115710551F0883076
:10552000910538F421912093F100615071090196A1
:10553000F3CF21E0089709F020E08091E8008E7712
:105540008093E800CECF2111CFCF0AC0809182078F
:10555000882361F0853061F08091E80083FD0AC006
:105560008091E80082FFF2CF80E0089582E0089504
:1055700083E0089581E008952091890730918A079A
:105580002617370748F06115710539F42091E800B6
:105590002E772093E80001C0B901FC0120E06115DD
:1055A000710591F180918207882309F440C085300C
:1055B00009F43FC08091E80083FD3DC08091E80080
:1055C00082FD2FC08091E80080FFE9CF2091F30099
:1055D0008091F20090E0922B6115710559F08830AE
:1055E000910540F424912093F100319661507109A6
:1055F0000196F2CF21E0089709F020E08091E800C1
:105600008E778093E800CBCF2111CCCF0AC0809158
:105610008207882361F0853061F08091E80083FD86
:105620000AC08091E80082FFF2CF80E0089582E016
:10563000089583E0089581E00895982F973068F5E4
:105640009093E900981739F07091EC002091ED00EB
:105650005091F00003C0242F762F50E021FD02C0AE
:105660009F5FECCF3091EB003E7F3093EB003091A9
:10567000ED003D7F3093ED003091EB0031603093D1
:10568000EB007093EC002093ED005093F00020911C
:10569000EE0027FDE5CF80E008958F708093E9004C
:1056A00081E008958091830787FF11C08091E80011
:1056B00082FD05C0809182078111F8CF11C08091D1
:1056C000E8008B770BC080918207882349F0809196
:1056D000E80080FFF8CF8091E8008E778093E800A3
:1056E00008952091E4003091E50095E64091EC00AA
:1056F000842F817040FF23C08091E80080FD1DC091
:1057000080918207882399F0853099F08091EB0091
:1057100085FD11C04091E4005091E5002417350744
:1057200029F3915011F09A01E1CF84E0089582E0CD
:10573000089583E0089581E0089580E00895409100
:10574000E80042FFDDCF08950E94122C0E941A2C1F
:10575000E0EEF0E0808181608083E8EDF0E0808120
:105760008F77808319BCA7EDB0E08C918E7F8C93EE
:1057700080818F7E80831092810708950F931F93FD
:10578000CF93DF930E94122C0E941A2CC8EDD0E018
:1057900088818F77888388818068888388818F7DDE
:1057A000888319BC1092820710927E07109280079E
:1057B00010927F0700EE10E0F80180818B7F8083DC
:1057C00088818160888342E060E080E00E941D2B38
:1057D000E1EEF0E080818E7F8083E2EEF0E0808178
:1057E00081608083808188608083F80180818E7FE2
:1057F0008083888180618883DF91CF911F910F9191
:105800000895E8EDF0E080818F7E8083E7EDF0E0A1
:1058100080818160808384E082BF81E08093810702
:105820000C94BE2BE8EDF0E080818E7F8083109297
:10583000E20008951092DA001092E10008951F929C
:105840000F920FB60F9211242F933F934F935F93B4
:105850006F937F938F939F93AF93BF93EF93FF9338
:105860008091E10082FF0BC08091E20082FF07C0BF
:105870008091E1008B7F8093E1000E94332880912A
:10588000DA0080FF1FC08091D80080FF1BC080918C
:10589000DA008E7F8093DA008091D90080FF0DC0FE
:1058A00080E189BD82E189BD09B400FEFDCF81E0C0
:1058B000809382070E940C2805C019BC10928207B1
:1058C0000E941E288091E10080FF19C08091E200B3
:1058D00080FF15C08091E2008E7F8093E20080916E
:1058E000E20080618093E2008091D8008062809322
:1058F000D80019BC85E0809382070E9429288091F6
:10590000E10084FF30C08091E20084FF2CC080E180
:1059100089BD82E189BD09B400FEFDCF8091D80028
:105920008F7D8093D8008091E1008F7E8093E1008D
:105930008091E2008F7E8093E2008091E20081609E
:105940008093E20080917E07882311F084E007C0F5
:105950008091E30087FD02C081E001C083E0809375
:1059600082070E942D288091E10083FF29C0809149
:10597000E20083FF25C08091E100877F8093E100F2
:1059800082E08093820710927E078091E1008E7FF3
:105990008093E1008091E2008E7F8093E20080910D
:1059A000E20080618093E20042E060E080E00E94DB
:1059B0001D2B8091F00088608093F0000E942528C4
:1059C000FF91EF91BF91AF919F918F917F916F91D7
:1059D0005F914F913F912F910F900FBE0F901F90AD
:1059E00018951F920F920FB60F9211242F933F9389
:1059F0004F935F936F937F938F939F93AF93BF93D7
:105A0000CF93DF93EF93FF93C091E900CF70809124
:105A1000EC00D82FD17080FDD0E81092E900809181
:105A2000F000877F8093F00078940E94352D1092CB
:105A3000E9008091F00088608093F000CD2BCF705A
:105A4000C093E900FF91EF91DF91CF91BF91AF91AA
:105A50009F918F917F916F915F914F913F912F9186
:105A60000F900FBE0F901F9018951F93CF93DF9349
:105A7000CDB7DEB7AA970FB6F894DEBF0FBECDBF85
:105A8000E3E8F7E08091F100819327E0EB38F2073B
:105A9000C9F70E9483288091E80083FF2EC180917E
:105AA000830790918407492F50E04A30510508F050
:105AB00024C1FA01EB57FF4F0C94FB32803821F0E0
:105AC000823809F01AC108C080917F079091800741
:105AD000992389F082600FC0809187078F7087308B
